:100000000EC028C027C026C025C024C023C022C0DF
:1000100021C020C01FC01EC01DC01CC062C0112452
:100020001FBECFE5D2E0DEBFCDBF10E0A0E6B0E05E
:10003000E4EDF1E002C005900D92A236B107D9F7C8
:1000400010E0A2E6B0E001C01D92AA36B107E1F7C8
:1000500085D0BEC0D5CF982F990F9A7A8695857591
:10006000982B892F880F880F8C7C96959695937383
:10007000892B82950895109265001092640008956E
:1000800078941DB882E088BBB99A089582E08ABD51
:1000900081E083BF12BE84E389BDE0916500F0E09A
:1000A000EA59FF4F808186958FB984E58DB9B99A59
:1000B00088E48EB90895CF93DF93909165009F5F98
:1000C0009370209164009217E1F390936500C091C2
:1000D0006500D0E0C0DFCA59DF4F8883DF91CF9140
:1000E000D5CF1F920F920FB60F9211248F939F932B
:1000F000EF93FF938091620090916300892BC1F48C
:1001000081E090E0909363008093620080916400AE
:100110008F5F8370E82FF0E0EA59FF4F9081979549
:10012000992797959F679FB9809364008EE40CC0D0
:100130008091620090916300019739F410926300FE
:10014000109262001DB880E48EB9FF91EF919F91EB
:100150008F910F900FBE0F901F9018958CDF90DF3E
:1001600088E6A9DF2FE986E891E0215080409040A1
:10017000E1F700C0000085E69EDF2FE986E891E008
:10018000215080409040E1F700C0000083E693DFFB
:100190002FE986E891E0215080409040E1F700C0CF
:1001A00000008BE688DF2FE986E891E0215080404F
:1001B0009040E1F700C000008FE67DDF2FE986E880
:1001C00091E0215080409040E1F700C00000C8CF8E
:0401D000F894FFCFD1
:0201D4006800C1
:00000001FF
