:100000000EC01DC01CC01BC01AC019C018C017C02C
:1000100016C015C014C013C012C039C07FC011244F
:100020001FBECFE5D2E0DEBFCDBF20E0A0E6B0E04E
:1000300001C01D92A736B207E1F7C3D0D0C0E0CF10
:10004000982F990F9A7A86958575982B892F880F06
:10005000880F8C7C969596959373892B829508953D
:1000600010926200109261000895F89418BA87B354
:1000700087BB12BE82E08ABD81E083BF84E389BD75
:100080008FEF8EB984ED8DB9BB9A789408951F9245
:100090000F920FB60F921124C39A0F900FBE0F90BC
:1000A0001F9018951DB882E088BB87B387BB8091ED
:1000B00060008460809360000895F89482E08ABDB7
:1000C00081E083BF12BE84E389BD8FEF8FB994E5D1
:1000D0009DB9B99ABB9A8EB978940895CF93DF935E
:1000E000909162009F5F9370209161009217E1F3FD
:1000F00090936200C0916200D0E0A2DFCD59DF4F43
:100100008883DBDF8091600082FFFCCF80916000FC
:10011000816080936000DF91CF9108951F920F92CC
:100120000FB60F9211248F939F93EF93FF938091BB
:10013000600080FF1AC0809161008F5F8370E82F9C
:10014000F0E0ED59FF4F90819695969590689FB994
:1001500099E49EB980936100809160008E7F8093C6
:10016000600080916000826019C08091600081FF12
:1001700018C0E0916100F0E0ED59FF4F8081829559
:10018000880F807E8F618FB98DE48EB98091600079
:100190008D7F809360008091600084608093600018
:1001A00007C08091600082FF03C01DB880E48EB953
:1001B000FF91EF919F918F910F900FBE0F901F9025
:1001C00018954EDF6FDF88E689DF2FE986E891E03A
:1001D000215080409040E1F700C00000F4CFF89437
:0201E000FFCF4F
:00000001FF
