:100000000EC028C027C026C025C024C023C022C0DF
:1000100021C020C01FC01EC01DC01CC055C011245F
:100020001FBECFE5D2E0DEBFCDBF10E0A0E6B0E05E
:10003000EAEEF1E002C005900D92A236B107D9F7C1
:1000400020E0A2E6B0E001C01D92AA36B207E1F7B7
:1000500090D0C9C0D5CF982F990F9A7A869585757B
:10006000982B892F880F880F8C7C96959695937383
:10007000892B82950895109265001092640008956E
:1000800078941DB882E088BBB99A089582E08ABD51
:1000900081E083BF12BE84E389BD1FB884E58DB9BA
:1000A000B99ABB9A0895909165009F5F93702091D3
:1000B00064009217E1F390936500E0916500F0E031
:1000C000EA59FF4F8083E2CF1F920F920FB60F9233
:1000D00011248F939F93EF93FF93809162009091EF
:1000E0006300892B81F4E0916500F0E0EA59FF4F4D
:1000F000808186958FB981E090E090936300809332
:10010000620088E41DC080916200909163000197B5
:10011000C9F482E090E09093630080936200809144
:1001200064008F5F8370E82FF0E0EA59FF4F908101
:100130009795992797959F679FB9809364008EE460
:100140008EB90EC08091620090916300029741F4D5
:10015000C39A1DB880E48EB91092630010926200B9
:10016000FF91EF919F918F910F900FBE0F901F9075
:10017000189581DF85DF88E696DF2FE986E891E034
:10018000215080409040E1F700C0000085E68BDF01
:100190002FE986E891E0215080409040E1F700C0CF
:1001A000000083E680DF2FE986E891E0215080405F
:1001B0009040E1F700C000008BE675DF2FE986E88C
:1001C00091E0215080409040E1F700C000008FE6B0
:1001D0006ADF2FE986E891E0215080409040E1F706
:0A01E00000C00000C8CFF894FFCF64
:0201EA006800AB
:00000001FF
