:100000000EC028C027C026C025C024C023C022C0DF
:1000100021C020C01FC01EC01DC01CC049C011246B
:100020001FBECFE5D2E0DEBFCDBF10E0A0E6B0E05E
:10003000E2EAF1E002C005900D92A236B107D9F7CD
:1000400010E0A2E6B0E001C01D92A436B107E1F7CE
:1000500062D0A5C0D5CF982F990F9A7A86958575CD
:10006000982B892F880F880F8C7C96959695937383
:10007000892B8295089578941DB882E088BBB99A3F
:100080000895E9DF8093600082E08ABD8CB58160CD
:100090008CBD81E083BF12BE84E389BD8091600086
:1000A00086958FB984E58DB9B99A88E48EB908959B
:1000B0001F920F920FB60F9211248F939F938091EE
:1000C000620090916300892B79F481E090E0909335
:1000D00063008093620080916000879588278795F0
:1000E0008F678FB98EE40FC080916200909163009A
:1000F000019751F410926300109262001DB882E0E3
:1001000088BBB99A80E48EB99F918F910F900FBEF2
:100110000F901F901895AFDF88E6B3DF2FE986E8D0
:1001200091E0215080409040E1F700C0000085E65A
:10013000A8DF2FE986E891E0215080409040E1F768
:1001400000C0000085E69DDF2FE986E891E02150A0
:1001500080409040E1F700C000008CE692DF2FE97C
:1001600086E891E0215080409040E1F700C0000017
:100170008CE687DF2FE986E891E0215080409040AF
:10018000E1F700C000008FE67CDF2FE986E891E010
:10019000215080409040E1F700C00000BDCFF894AE
:0201A000FFCF8F
:0201A2006800F3
:00000001FF
