:100000000EC028C027C026C025C024C023C022C0DF
:1000100021C020C01FC01EC01DC01CC045C011246F
:100020001FBECFE5D2E0DEBFCDBF10E0A0E6B0E05E
:10003000E0E6F1E002C005900D92A236B107D9F7D3
:1000400020E0A2E6B0E001C01D92A436B207E1F7BD
:100050006DD084C0D5CF982F990F9A7A86958575E3
:10006000982B892F880F880F8C7C96959695937383
:10007000892B829508951DB882E088BBB99A0895AE
:10008000F894E9DF8093600082E08ABD81E083BF5D
:1000900012BE84E389BD84E58DB98FEF8FB98EB927
:1000A000B99ABB9A789408951F920F920FB60F9247
:1000B00011248F939F938091620090916300892B0C
:1000C00059F4809160008695869580688FB989E49F
:1000D0008EB981E090E011C0809162009091630040
:1000E000019781F4809160008295880F807E8F61F6
:1000F0008FB98DE48EB982E090E090936300809395
:1001000062000DC08091620090916300029739F403
:100110001DB880E48EB910926300109262009F9126
:100120008F910F900FBE0F901F901895A4DF88E657
:10013000A7DF2FE986E891E0215080409040E1F769
:1001400000C0000081E69CDF2FE986E891E02150A5
:1001500080409040E1F700C00000E9CFF894FFCF65
:02016000680035
:00000001FF
