:100000000EC028C027C026C025C024C023C022C0DF
:1000100021C020C01FC01EC01DC01CC045C011246F
:100020001FBECFE5D2E0DEBFCDBF10E0A0E6B0E05E
:10003000EAE6F1E002C005900D92A236B107D9F7C9
:1000400020E0A2E6B0E001C01D92A436B207E1F7BD
:100050007DD089C0D5CF982F990F9A7A86958575CE
:10006000982B892F880F880F8C7C96959695937383
:10007000892B829508951DB882E088BBB99A0895AE
:10008000F894E9DF8093600082E08ABD81E083BF5D
:1000900012BE84E389BD84E58DB98FEF8FB98EB927
:1000A000B99ABB9A789408951F920F920FB60F9247
:1000B00011242F938F939F938091620090916300FE
:1000C000892B59F4809160008695869580688FB958
:1000D0008BE48EB981E090E011C080916200909134
:1000E0006300019781F480916000880F880F880F6A
:1000F00087608FB98BE48EB982E090E090936300C3
:10010000809362001BC0809162009091630002970F
:10011000A9F41DB880E48EB9C39A2FE986E891E06E
:10012000215080409040E1F700C0000098B388E083
:10013000892788BB10926300109262009F918F9173
:100140002F910F900FBE0F901F90189594DF88E6A7
:1001500097DF2FE986E891E0215080409040E1F759
:0A01600000C00000F4CFF894FFCFB8
:02016A0068002B
:00000001FF
