:100000000EC01DC052C01BC01AC019C018C017C0F6
:1000100016C015C014C013C012C011C0AEC0112448
:100020001FBECFE5D2E0DEBFCDBF20E0A0E6B0E04E
:1000300001C01D92AE36B207E1F706D118C1E0CF7C
:10004000809161000895982F990F9A7A8695857509
:10005000982B892F880F880F8C7C96959695937393
:10006000892B829508951092690010926800109271
:10007000630010926200089587B387BBC09A80E244
:100080008ABF8BBF81E085BB78940895F89482E0A5
:100090008ABD81E083BF8EE282BF84E389BD8FEF9A
:1000A0008EB984E58DB9789408951F920F920FB69A
:1000B0000F9211242F933F934F935F936F937F93EE
:1000C0008F939F93AF93BF93EF93FF9386B380E299
:1000D0008ABF8BB78F7D8BBFA898D8DF80916000D7
:1000E000886080936000FF91EF91BF91AF919F91E5
:1000F0008F917F916F915F914F913F912F910F90D1
:100100000FBE0F901F9018951DB8C19AB99A809193
:1001100060008460809360000895F89482E08ABD56
:1001200081E083BF12BE84E389BD84E58DB98FEF82
:100130008FB9B99A8EB978940895CF93DF9390913F
:1001400069009F5F9370209168009217E1F390938C
:100150006900C0916900D0E076DFC659DF4F88831F
:10016000DCDF8091600082FFFCCF809160008160C5
:1001700080936000DF91CF9108951F920F920FB688
:100180000F9211248F939F93EF93FF9380916000C0
:1001900080FF1AC0809168008F5F8370E82FF0E0C5
:1001A000E659FF4F90819695969590689FB999E48E
:1001B0009EB980936800809160008E7F809360007C
:1001C00080916000826019C08091600081FF18C03A
:1001D000E0916800F0E0E659FF4F80818295880F3A
:1001E000807E8F618FB98DE48EB9809160008D7FA4
:1001F00080936000809160008460809360001BC0E9
:100200008091600082FF04C01DB880E48EB913C0E5
:100210008091600083FF0FC01DB888E48EB9809183
:100220006000877F8093600080E28BBF81E085BBA8
:100230008FB180936100FF91EF919F918F910F900B
:100240000FBE0F901F9018950EDF16DFF9DE882382
:10025000E9F35ADFF5DEF7DE70DF2FE986E891E09B
:10026000215080409040E1F700C00000EFCFF894AB
:02027000FFCFBE
:00000001FF
