:100000000EC028C027C026C025C024C023C022C0DF
:1000100021C020C01FC01EC01DC01CC057C011245D
:100020001FBECFE5D2E0DEBFCDBF10E0A0E6B0E05E
:10003000EAEFF1E002C005900D92A236B107D9F7C0
:1000400020E0A2E6B0E001C01D92AA36B207E1F7B7
:1000500098D0D1C0D5CF982F990F9A7A869585756B
:10006000982B892F880F880F8C7C96959695937383
:10007000892B82950895109265001092640008956E
:1000800078941DB882E088BBB99A089582E08ABD51
:1000900081E083BF12BE84E389BDB99ABB9A0895FB
:1000A000CF93DF93909165009F5F937020916400E0
:1000B0009217E1F390936500C0916500D0E0CBDF2B
:1000C000CA59DF4F8883DF91CF91E0CF1F920F9203
:1000D0000FB60F9211248F939F93EF93FF9380910C
:1000E000620090916300892BB9F4809164008F5F66
:1000F0008370E82FF0E0EA59FF4F908196959FB901
:100100008093640084E58DB981E090E09093630072
:100110008093620088E41DC080916200909163002A
:100120000197C9F482E090E09093630080936200AD
:10013000809164008F5F8370E82FF0E0EA59FF4FF1
:1001400090819795992797959F679FB980936400B1
:100150008EE48EB90DC08091620090916300029789
:1001600039F41DB880E48EB91092630010926200D9
:10017000FF91EF919F918F910F900FBE0F901F9065
:10018000189579DF7DDF88E68BDF2FE986E891E03F
:10019000215080409040E1F700C0000085E680DFFC
:1001A0002FE986E891E0215080409040E1F700C0BF
:1001B000000083E675DF2FE986E891E0215080405A
:1001C0009040E1F700C000008BE66ADF2FE986E887
:1001D00091E0215080409040E1F700C000008FE6A0
:1001E0005FDF2FE986E891E0215080409040E1F701
:0A01F00000C00000C8CFF894FFCF54
:0201FA0068009B
:00000001FF
