:100000000EC028C027C026C025C024C023C022C0DF
:1000100021C020C01FC01EC01DC01CC046C011246E
:100020001FBECFE5D2E0DEBFCDBF10E0A0E6B0E05E
:10003000E0E8F1E002C005900D92A236B107D9F7D1
:1000400020E0A2E6B0E001C01D92A436B207E1F7BD
:100050005CD094C0D5CF982F990F9A7A86958575E4
:10006000982B892F880F880F8C7C96959695937383
:10007000892B8295089578941DB882E088BBB99A3F
:100080000895E9DF8093600082E08ABD81E083BF4C
:1000900012BE84E389BD8091600086958FB984E5A6
:1000A0008DB9B99A88E48EB908951F920F920FB650
:1000B0000F9211248F939F9380916200909163001F
:1000C000892B79F481E090E0909363008093620043
:1000D000809160008795882787958F678FB98EE418
:1000E0000CC08091620090916300019739F41092E6
:1000F0006300109262001DB880E48EB99F918F91C9
:100100000F900FBE0F901F901895B5DF88E6B9DFEE
:100110002FE986E891E0215080409040E1F700C04F
:10012000000085E6AEDF2FE986E891E021508040AF
:100130009040E1F700C000008CE6A3DF2FE986E8DD
:1001400091E0215080409040E1F700C000008CE633
:1001500098DF2FE986E891E0215080409040E1F758
:1001600000C000008FE68DDF2FE986E891E0215086
:1001700080409040E1F700C00000C8CFF894FFCF66
:02018000680015
:00000001FF
