:100000000EC01DC058C01BC01AC019C018C017C0F0
:1000100016C015C014C013C012C011C0B4C0112442
:100020001FBECFE5D2E0DEBFCDBF20E0A0E6B0E04E
:1000300001C01D92AD36B207E1F712D124C1E0CF65
:10004000E0916100EF5FE370F0E0ED59FF4F8081D8
:100050000895982F990F9A7A86958575982B892FF0
:10006000880F880F8C7C969596959373892B829533
:10007000089510926800109267001092620010922A
:100080006100089587B387BBC09A80E28ABF8BBFA7
:1000900081E085BB78940895F89482E08ABD81E080
:1000A00083BF8EE282BF84E389BD8FEF8EB984E582
:1000B0008DB9789408951F920F920FB60F92112464
:1000C0002F933F934F935F936F937F938F939F9360
:1000D000AF93BF93EF93FF9386B380E28ABF8BB752
:1000E0008F7D8BBFA898D8DF809160008860809357
:1000F0006000FF91EF91BF91AF919F918F917F91A0
:100100006F915F914F913F912F910F900FBE0F9084
:100110001F9018951DB8C19AB99A809160008460AB
:10012000809360000895F89482E08ABD81E083BFE7
:1001300012BE84E389BD84E58DB98FEF8FB9B99A7A
:100140008EB978940895CF93DF93909168009F5F64
:100150009370209167009217E1F390936800C0912B
:100160006800D0E076DFC759DF4F8883DCDF8091FD
:10017000600082FFFCCF809160008160809360000E
:10018000DF91CF9108951F920F920FB60F92112415
:100190008F939F93EF93FF938091600080FF1AC02D
:1001A000809167008F5F8370E82FF0E0E759FF4F81
:1001B00090819695969590689FB999E49EB98093A1
:1001C0006700809160008E7F809360008091600066
:1001D000826019C08091600081FF18C0E0916700C3
:1001E000F0E0E759FF4F80818295880F807E8F6114
:1001F0008FB98DE48EB9809160008D7F809360000F
:100200008091600084608093600021C080916000D4
:1002100082FF04C01DB880E48EB919C080916000CF
:1002200083FF15C0E0916200EF5FE370F0E08FB1F3
:10023000ED59FF4F80831DB888E48EB9809160002E
:10024000877F8093600080E28BBF81E085BBFF9158
:10025000EF919F918F910F900FBE0F901F90189567
:1002600008DF10DFEDDE8823E9F354DFE9DEF1DE9D
:100270006ADF2FE986E891E0215080409040E1F765
:0A02800000C00000EFCFF894FFCF9C
:00000001FF
