:100000000EC01DC06FC01BC01AC019C018C017C0D9
:1000100016C015C014C013C012C011C0C7C011242F
:100020001FBECFE5D2E0DEBFCDBF20E0A0E6B0E04E
:1000300001C01D92AD36B207E1F728D141C1E0CF32
:10004000E0916100EF5FE370E0936100F0E0ED5953
:10005000FF4F80810895209161009091620081E0BE
:10006000291301C080E00895982F990F9A7A8695F8
:100070008575982B892F880F880F8C7C969596957F
:100080009373892B829508958091600082FB882765
:1000900080F9089510926800109267001092620033
:1000A00010926100089587B387BBC09A80E28ABF2F
:1000B0008BBF81E085BB7894C3980895F89482E063
:1000C0008ABD81E083BF8FE182BF88E689BD88E475
:1000D0008EB984E58DB9809160008860809360005E
:1000E000789408951F920F920FB60F9211242F93B8
:1000F0003F934F935F936F937F938F939F93AF93B0
:10010000BF93EF93FF9386B380E28ABF8BB78F7D57
:100110008BBFA898D3DFFF91EF91BF91AF919F91D3
:100120008F917F916F915F914F913F912F910F90A0
:100130000FBE0F901F9018951DB8C19AB99A809163
:100140006000846080936000C39A0895F89482E010
:100150008ABD81E083BF12BE88E689BD84E58DB982
:100160008FEF8FB9B99A8EB978940895CF93DF93B2
:10017000909168009F5F9370209167009217E1F360
:1001800090936800C0916800D0E06EDFC759DF4FE0
:100190008883DCDF8091600082FFFCCF809160006B
:1001A000816080936000DF91CF9108951F920F923C
:1001B0000FB60F9211248F939F93EF93FF9380912B
:1001C000600080FF1AC0809167008F5F8370E82F06
:1001D000F0E0E759FF4F90819695969590689FB90A
:1001E00099E49EB980936700809160008E7F809330
:1001F000600080916000826019C08091600081FF82
:1002000018C0E0916700F0E0E759FF4F80818295C8
:10021000880F807E8F618FB98DE48EB980916000E8
:100220008D7F809360008091600084608093600087
:1002300024C08091600082FF04C01DB880E48EB9A4
:100240001CC08091600083FF18C0809162008F5FA6
:100250008370E82FF0E09FB1ED59FF4F90838093BA
:1002600062001DB88FEF8EB980916000877F809308
:10027000600080E28BBF81E085BBFF91EF919F9191
:100280008F910F900FBE0F901F90189503DF0BDF1B
:10029000BB9AE1DE882349F04FDFD2DEE5DE66DF80
:1002A000F3DE8823E9F3FFDEC39A2FE986E891E0C5
:1002B000215080409040E1F700C00000C398E9CF92
:0402C000F894FFCFE0
:00000001FF
